:1000000010C02AC029C028C0A6C526C025C024C04B
:1000100023C022C021C020C01FC01EC06AC51CC092
:100020001BC011241FBECFE5D2E0DEBFCDBF10E064
:10003000A0E6B0E0EAE7F0E102C005900D92A43A34
:10004000B107D9F710E0A4EAB0E001C01D92AC3BC3
:10005000B107E1F7CAD50FC8D3CF61157105D1F04B
:10006000FC01680F791F80E048E1219198E004C00D
:1000700086952695915051F0322F382730FFF8CFD2
:1000800084278695806826959150B1F7E617F70783
:1000900061F7089580E00895FB01218130E0322F5F
:1000A00022279081292B803109F456C037FD65C085
:1000B00060E0883209F446C0823209F443C0A901E5
:1000C000529542954F7045275F704527CA01880FAA
:1000D000991F440F551F440F551F440F551F840F80
:1000E000951F2F703327A9015695542F44275795F4
:1000F0004795322F2227330F420F531F9A01611168
:1001000010C03E5F232F332726952695280F391FD1
:10011000C9018A5D9D4F8930974090F080ED97E04E
:100120000895232F332726952695280F391F3195BB
:1001300021953109C9018A5D9D4F8930974070F73B
:10014000C9010895848180768032F1F08034D1F045
:100150008111B5CF287FB3CFA9014E7F440F551F22
:10016000440F551F440F551F96812CE030E0291B8A
:100170003109240F351F37FF9BCF31952195310968
:1001800061E097CF2E7F9BCF2C7F99CFCF93FB0140
:10019000418150E0542F44279081492B8031A9F1AF
:1001A00057FD44C0C0E0883231F1823221F19A011A
:1001B000329522952F7023273F702327A0E1B7E2C5
:1001C000BAD64F705527E1E7F2E04E9F90014F9F5E
:1001D000300D5E9F300D1124620F731F811D911D24
:1001E000CC2339F090958095709561957F4F8F4F16
:1001F0009F4FCF910895848180768032F1F08034D2
:10020000D1F08111D4CF487FD2CF9A012E7F220F17
:10021000331F220F331F220F331F96814CE050E013
:10022000491B5109420F531F57FFBCCF51954195B0
:100230005109C1E0B8CF4E7FBACF4C7FB8CFEF9213
:10024000FF920F931F93CF93DF93F62EE72E042F89
:10025000BC018EEB6CD6002341F0CF2DDE2D10E0DB
:100260000ED689931F5F1013FBCF69E070E08F2DCE
:100270009E2DF3DE811183E0DF91CF911F910F91CD
:10028000FF90EF9008950F931F93CF93DF938C010E
:10029000EB01FC018081BE01F4D5F80180839FEF62
:1002A000980F9D3F68F49881983221F0903111F0B9
:1002B000923289F780E0DF91CF911F910F910895DD
:1002C00081E0DF91CF911F910F910895CF93DF933C
:1002D000EC0167D5BE0184EB2AD681E07AD5C82F20
:1002E00060D581E0C11101C080E0DF91CF91089518
:1002F0001F93CF93DF93182FEB0153D549D581116D
:1003000005C082E0DF91CF911F910895BE0184E482
:10031000113031F00ED680E0DF91CF911F9108951A
:1003200006D680E0DF91CF911F91089581E051D5ED
:1003300091E0811190E0892F0895EF92FF920F9341
:100340001F93CF93DF93CDB7DEB727970FB6F894FF
:10035000DEBF0FBECDBF8B01473008F452C09C01F9
:1003600029513C4F273F3A4208F04BC097FD57C0F8
:10037000E12CF12C01C0F22E6AE070E0E8D521E01A
:100380002F0DE1E0F0E0EC0FFD1FEF0DF11DF7FC8C
:10039000FA95805D8083862F972F181619065CF3D7
:1003A000822F992787FD9095E1E0F0E0EC0FFD1F8B
:1003B000E80FF91FEE2009F440C03DE2308327FD2D
:1003C0003FC030E05EE209C03E5FF801E40FF11D7E
:1003D0005083822F992787FD909541E0430F21504C
:1003E000E1E0F0E0EC0FFD1FE80FF91F9081F8014C
:1003F000E30FF11D9083222339F32F3FB1F0342F07
:10040000E8CF81E027960FB6F894DEBF0FBECDBFD0
:10041000DF91CF911F910F91FF90EF9008959195EB
:1004200081959109EE24E394A4CF842F90E0F80104
:10043000E80FF91F108280E0E5CF3BE23083BFCFA9
:1004400080E090E0F4CFDF92EF92FF920F931F9342
:10045000CF93DF93CDB7DEB729970FB6F894DEBF01
:100460000FBECDBF8C017B019CD449E0BE016F5F04
:100470007F4FC801E4DED82E811109C0BE016F5F35
:100480007F4FF801808108DEF701918380838D2DF5
:1004900029960FB6F894DEBF0FBECDBFDF91CF9186
:1004A0001F910F91FF90EF90DF900895EF92FF92D0
:1004B0000F931F93CF93DF93CDB7DEB729970FB676
:1004C000F894DEBF0FBECDBFE82E8B0149E0BE0120
:1004D0006F5F7F4F80E090E0B2DEF82E811108C0A0
:1004E000BE016F5F7F4F8E2DD7DDF8019183808332
:1004F0008F2D29960FB6F894DEBF0FBECDBFDF91CA
:10050000CF911F910F91FF90EF900895DF92EF929E
:10051000FF920F931F93CF93DF93CDB7DEB7299749
:100520000FB6F894DEBF0FBECDBF8C017B0139D46E
:1005300049E0BE016F5F7F4FC80181DED82E811177
:100540000BC0BE016F5F7F4FF80180811FDEF70196
:1005500060837183828393838D2D29960FB6F894DF
:10056000DEBF0FBECDBFDF91CF911F910F91FF90E6
:10057000EF90DF900895EF92FF920F931F93CF9328
:10058000DF93CDB7DEB729970FB6F894DEBF0FBE65
:10059000CDBFE82E8B0149E0BE016F5F7F4F80E049
:1005A00090E04DDEF82E81110AC0BE016F5F7F4FD3
:1005B0008E2DECDDF80160837183828393838F2D10
:1005C00029960FB6F894DEBF0FBECDBFDF91CF9155
:1005D0001F910F91FF90EF900895CF92DF92EF92CD
:1005E000FF920F931F93CF93DF93CDB7DEB7629740
:1005F0000FB6F894DEBF0FBECDBF8A012A3008F4D3
:1006000072C06B017C012FE3C20E22E4D21E2FE0E8
:10061000E21EF11C2FEBC21628EDD20627EAE206F5
:10062000F10408F060C097FD6EC0E12CF12C01C010
:10063000F22E2AE030E040E050E09CD42B873C874B
:100640004D875E876F87788B898B9A8B21E02F0D82
:10065000E1E0F0E0EC0FFD1FEF0DF11DF7FCFA9566
:10066000605D60836B857C858D859E85161617067B
:1006700018061906ECF2922F8FEF8F0D823008F4D6
:1006800057C0822F992787FD9095E1E0F0E0EC0FAD
:10069000FD1FE80FF91FEE2009F447C03DE230834B
:1006A00027FD53C030E05EE207C02F3FB1F1342F89
:1006B000822F992787FD909541E0430F2150E1E07B
:1006C000F0E0EC0FFD1FE80FF91F8081F801E30F48
:1006D000F11D8083233049F7F801E40FF11D5083A9
:1006E00042E0430FE4CF81E062960FB6F894DEBF9C
:1006F0000FBECDBFDF91CF911F910F91FF90EF9073
:10070000DF90CF90089590958095709561957F4F7B
:100710008F4F9F4FEE24E39489CF842F90E0F80110
:10072000E80FF91F108280E0DFCF3BE23083B8CFC3
:1007300022E02F0DE1E0F0E0EC0FFD1FE90FF11DCD
:1007400097FDFA9580E380839CCF80E090E0E7CF2F
:10075000FF920F931F93CF93DF93EC01162F042F7B
:10076000F22E1FD315D3811107C081E0DF91CF9105
:100770001F910F91FF900895BE018EE4D8D3812F71
:100780002BD3802F29D38881883249F0823239F0E7
:1007900080E0DF91CF911F910F91FF9008958F2DF1
:1007A0001BD380E0DF91CF911F910F91FF900895AF
:1007B000EF92FF920F931F93CF93DF931F92CDB7CA
:1007C000DEB77C018B014983ECD2E2D249818111F1
:1007D00009C081E00F90DF91CF911F910F91FF90A1
:1007E000EF900895B801C7010F90DF91CF911F914D
:1007F0000F91FF90EF9023CD1F93CF93DF93182F8E
:10080000EB01CFD2C5D2811105C082E0DF91CF913B
:100810001F910895BE0188E4113069F08AD383ECFA
:1008200099E00197F1F700C00000B8D280E0DF91B5
:10083000CF911F9108957BD383EC99E00197F1F755
:1008400000C0000080E0E2CFCF93DF93EC01A9D29B
:100850009FD2811104C081E0DF91CF910895BE0144
:1008600088EB65D3CEEF02C0C15038F081E0B1D241
:100870008823D1F381E0CC2379F380E0DF91CF911D
:100880000895662349F1D89AD998D49AD59AD69AD8
:10089000D79ADF98DE98DD98DC9887FD1FC086FD2B
:1008A000DE9A85FDDD9A84FDDC9ADA9A00C0DA983A
:1008B000DF98DE98DD98DC9883FDDF9A82FDDE9A72
:1008C00081FDDD9A80FDDC9ADA9A00C0DA98DC9A24
:1008D000DD9ADE9ADF9A0895D898D6CFDF9ADFCFD7
:1008E000D898D99AD498D598D698D798DA9A00C03B
:1008F000CC9915C080E0CD998062CE998064CF9963
:1009000010C0DA9800C0DA9A00C0CC998160CD9905
:100910008260CE998460CF998860DA98089580E1EA
:10092000EACF8068EECFDCDF87FDFDCF00C0D8CFF7
:10093000CF93C82FF8DF60E08C2FCF91A2CFCF9359
:10094000C82FF1DF61E08C2FCF919BCFCF93C82FC1
:10095000662331F0E8DF60E080EC8C0FCF9191CF1F
:10096000E2DF60E080E88C0FCF918BCFDCDF90E09E
:100970000895D9DF60E081E084CFD5DF60E082E0D8
:1009800080CFCF93C82FCFDFCA3021F061E08C2F0A
:10099000CF9177CF803430F0C0E8C5DF60E08C2F96
:1009A000CF916FCFC0ECF9CFCF93DF93EC012196BD
:1009B000FC018081882321F0E4DF89918111FCCF43
:1009C000DF91CF9108950F931F93CF93DF93CDB70E
:1009D000DEB72A970FB6F894DEBF0FBECDBF4AE050
:1009E00050E0BE016F5F7F4F17D38981882349F0A4
:1009F0008E010E5F1F4FC5DFF80181918F018111BC
:100A0000FACF2A960FB6F894DEBF0FBECDBFDF91A6
:100A1000CF911F910F910895CF93DF93EC01219611
:100A2000FC018491882331F0ACDFFE018491219692
:100A30008111FACFDF91CF910895CF93C82FD09A2B
:100A4000D19AD29AD49AD59AD69AD79AE0EAFFE068
:100A50003197F1F7DD9ADC9ADA9A00C0DA98E0EE85
:100A6000F4E03197F1F7DA9A00C0DA98E0E1F0E0CB
:100A70003197F1F7DA9A00C0DA98E0E1F0E03197C7
:100A8000F1F7DC98DA9A00C0DA98E0E1F0E031970B
:100A9000F1F749DF60E088E2F4DE45DF60E088E0FE
:100AA000F0DE41DF60E081E0ECDE3DDF60E086E02B
:100AB000E8DE39DF60E08C2FCF91E3CE4AE06AEACE
:100AC00070E03BDC61E086E041DF8AEA90E06CCFD9
:100AD00060E086E03BDF8091A80090E074DF80E674
:100AE00090E062DF8091A90090E06DDF83E690E006
:100AF0005BCF1F920F920FB60F9211242F933F934B
:100B00004F935F936F937F938F939F93AF93BF9315
:100B1000EF93FF9360E070E081E0EADB81110AC0AF
:100B200066EA70E08091A400C1DC8091A6009091FB
:100B3000A700C4DFFF91EF91BF91AF919F918F917B
:100B40007F916F915F914F913F912F910F900FBEC9
:100B50000F901F9018951F920F920FB60F921124AD
:100B60002F933F934F935F936F937F938F939F93B5
:100B7000AF93BF93EF93FF938091A9008F5F809312
:100B8000A9008091A9008C3338F08091A8008F5F74
:100B90008093A8001092A9009BDFFF91EF91BF9175
:100BA000AF919F918F917F916F915F914F913F9105
:100BB0002F910F900FBE0F901F90189583B78D60E7
:100BC00083BF81E681BF89B7816089BF8EB58860A8
:100BD0008EBD89B7806489BF88E09DE39BBD8ABDD7
:100BE0008EB583608EBD78940895CF93DF93CDB793
:100BF000DEB729970FB6F894DEBF0FBECDBF8CE0ED
:100C00001CDFB7DE60E080E0A1DECBD08FEF89870C
:100C100090E08E01075F1F4F882319F0992309F494
:100C20007CC08091B4008093A40080E890E0BCDE9A
:100C30002FEB87E299E0215080409040E1F700C01F
:100C4000000061E080E082DE89E890E0ADDE2FE325
:100C50008DE093E0215080409040E1F700C000001B
:100C600086E990E0A1DE2FE38DE093E02150804003
:100C70009040E1F700C0000086E990E095DE2FE3A8
:100C80008DE093E0215080409040E1F700C00000EB
:100C900086E990E089DE2FE38DE093E021508040EB
:100CA0009040E1F700C0000086E990E07DDE2FE390
:100CB0008DE093E0215080409040E1F700C00000BB
:100CC00058DE60E080E042DE88E990E06DDE61E0C1
:100CD00080E03CDE8EE990E067DE61E08CE036DEAD
:100CE0008FED4FDE83E44DDE1092A8001092A90034
:100CF00065DF85B7806185BF84B78F7D84BF86B788
:100D0000806886BF85B7806285BF85B7806285BFF2
:100D1000889585B78F7D85BFFFCFBE016F5F7F4F01
:100D2000C801B1DA89858F3F89F08E3F59F0FE0105
:100D30003196A4EBB0E091919D93E017F107D9F7BC
:100D400091E06ACF86E790E02FDE6BCF86E690E0F9
:100D50002BDE67CF982F2FB7F8948F9A00C08111A0
:100D60008F9884E08A95F1F7000080B3880F880B94
:100D700089239EE09A95F1F700008F98662311F081
:100D8000979A8F9A2FBF93E09A95F1F700000895F4
:100D900080B380780895979A8F9A08958F9897983E
:100DA000089597988F9A80EA8A95F1F79FB7F894FB
:100DB0008F9885E18A95F1F7000080B39FBF9AE88C
:100DC0009A95F1F700C0879902C081E00895807874
:100DD000089560E08170BECFCF93DF93C82FD8E035
:100DE00060E08C2F8170B6DFC6958111C068D1504C
:100DF000B9F78C2FDF91CF910895CF93DF93C82F50
:100E0000D8E0D13069F060E08C2F8170A3DFC69507
:100E10008111C068D150A9F78C2FDF91CF9108952F
:100E200061E08C2F817096DFF2CFEF92FF920F93EB
:100E30001F93CF93DF93E82EEB01F42EB2DF2097C0
:100E4000D9F085E5C9DF8E01085F1F4F8991C4DFA6
:100E5000C017D107D9F78E2DF11007C0DF91CF91C0
:100E60001F910F91FF90EF90B7CFDF91CF911F911E
:100E70000F91FF90EF90C1CF8CECAEDFECCF8FEFF6
:100E8000ABCFDF92EF92FF920F931F93CF93DF933D
:100E9000E82EEB0186DF882349F08FEFDF91CF91B9
:100EA0001F910F91FF90EF90DF90089580EF94DFF6
:100EB000D12C10E488EFF82EF10E0BC001112EC0DA
:100EC00060E080E047DF98819695988311501F1568
:100ED000E9F060E081E03EDF082F60E081E03ADF8A
:100EE0008111ECCF011117C01E1528F0988190FFD9
:100EF000E7CFE11629F3D12E81E060E02BDF988166
:100F000096959068988311501F11E3CF2196111187
:100F1000D1CF8D2DC3CF802F8170EFCF8EEFDF919A
:100F2000CF911F910F91FF90EF90DF90089540E0D7
:100F30007CCF41E07ACFA29FB001B39FC001A39FB5
:100F400001D0B29F700D811D1124911D089597FB52
:100F5000072E16F4009406D077FD08D027D007FCA2
:100F600005D03EF4909581959F4F089570956195B9
:100F70007F4F0895052E97FB16F400940FD057FD70
:100F800005D028D007FC02D046F408C05095409503
:100F9000309521953F4F4F4F5F4F08959095809525
:100FA000709561957F4F8F4F9F4F0895AA1BBB1B74
:100FB00051E107C0AA1FBB1FA617B70710F0A61B59
:100FC000B70B881F991F5A95A9F780959095BC017A
:100FD000CD010895A1E21A2EAA1BBB1BFD010DC075
:100FE000AA1FBB1FEE1FFF1FA217B307E407F507D9
:100FF00020F0A21BB30BE40BF50B661F771F881FB5
:10100000991F1A9469F760957095809590959B014A
:10101000AC01BD01CF010895FB019F01E89442306E
:10102000BCF04532ACF44A3029F497FB1EF490959D
:1010300081959F4F642F7727B9DF805D8A330CF04D
:10104000895D8193CB010097A9F716F45DE2519376
:101050001082C90100C0DC01FC01672F7191772368
:10106000E1F7329704C07C916D9370836291AE1763
:0A107000BF07C8F30895F894FFCFFE
:10107A006D20007320004E6F2053656E736F7220CF
:10108A00666F756E6400427573204572726F7200E6
:10109A0057656C636F6D652100496E697469616C8F
:1010AA00697A696E67002E0054696D653A00546565
:0410BA006D703A001B
:00000001FF
