:1000000010C02AC029C028C075C626C025C024C07B
:1000100023C022C021C020C01FC01EC01DC01CC0E4
:100020001BC011241FBECFE5D2E0DEBFCDBF10E064
:10003000A0E6B0E0EEEEF0E102C005900D92A03C2B
:10004000B107D9F710E0A0ECB0E001C01D92AB3EC3
:10005000B107E1F701D749C8D3CF61157105B9F0F0
:10006000E82FF92F6E0F7F1F80E058E048E12191C3
:10007000952F322F382730FF0CC084278695806853
:1000800026959150B1F7E617F70789F7089580E0B4
:1000900008958695F5CF08959FEF94BB3A9A399AC3
:1000A000389A85BB81E090E0FC013197F1F73A98EE
:1000B000FC013197F1F715BA14BA38980197F1F7A6
:1000C00083B3089580EBE8DF089580EDE5DF0895C0
:1000D00080E5E2DF089580E0DFDF08959FEF94BBC5
:1000E00065BB399838983A9A21E030E0F9013197A8
:1000F000F1F73A98389A85BBC9010197F1F738981A
:1001000014BA80E0089560EDE9DF089560E5E6DF68
:100110000895CF938FEF86B93A98A898A998D8DF19
:100120008823ECF3CFDF882324F484E690E081D4A5
:1001300003C08BE690E07DD484EFE8DFC9DFC82FF1
:1001400061E080E053D483E790E073D48C2F7ED4B9
:1001500088E0D9DFCF910895FB01318120E09081C3
:10016000292B803179F42E7FA901440F551F440FAC
:10017000551F440F551F96812CE030E0291B310993
:10018000240F351F33232CF431952195310961E07B
:1001900001C060E0883211F0823269F48481807697
:1001A000803231F0803431F0811105C0287F03C0E6
:1001B0002C7F01C02E7FC901929582958F7089276F
:1001C0009F708927AC01440F551F880F991F880F16
:1001D000991F880F991F840F951F2F703327A9012E
:1001E0005695542F442757954795322F2227330F82
:1001F000240F351F611112C03E5F232F3327269530
:100200002695280F391FC9018A5D9D4F8930974077
:1002100010F020ED37E0822F932F0895232F3327FE
:1002200026952695820F931F22273327281B390BEB
:10023000EACFCF92DF92EF92FF920F931F93CF936B
:10024000FB01518140E09081492B803179F44E7F50
:100250009A01220F331F220F331F220F331F968163
:100260004CE050E0491B5109420F531F55232CF419
:10027000519541955109C1E001C0C0E0883211F0AB
:10028000823269F484818076803231F0803431F0BA
:10029000811105C0487F03C04C7F01C04E7F9A0189
:1002A000329522952F7023273F702327A0E1B7E2D4
:1002B0007DD64F705527E1E7F2E04E9F90014F9FAA
:1002C000300D5E9F300D11246B017C01C20ED31ED8
:1002D000E11CF11C97018601CC2339F03095209563
:1002E000109501951F4F2F4F3F4F602F712F822F79
:1002F000932FCF911F910F91FF90EF90DF90CF90B0
:100300000895DF92EF92FF920F931F93CF93DF93A5
:10031000E62EF72ED42EBC018EEBE6D4DD2069F05C
:10032000CE2DDF2D8E010F5F1F4FDA940D0D111DA5
:1003300085D48993C017D107D9F769E070E08E2D75
:100340009F2D8BDE882311F083E001C080E0DF91D8
:10035000CF911F910F91FF90EF90DF9008950F9331
:100360001F93CF93DF93EC018B01B801888169D48F
:10037000888381508D3F50F4F8018081883241F0AC
:10038000803141F0823289F780E005C081E003C00E
:1003900080E001C080E0DF91CF911F910F9108951F
:1003A000CF93DF93EC01DED3BE0184EB9DD481E0DB
:1003B000F2D3C82FD7D381E0C11101C080E0DF9113
:1003C000CF9108951F93CF93DF93182FEB01CAD3DA
:1003D0009CD3882361F0113029F0BE0184E487D4D6
:1003E00080E006C0BE0184E47FD480E001C082E0EA
:1003F000DF91CF911F91089581E0CDD391E08111DC
:1004000090E0892F0895EF92FF920F931F93CF935F
:10041000DF93CDB7DEB727970FB6F894DEBF0FBED8
:10042000CDBF8B01473008F45EC089312CEF9207B5
:100430000CF45BC0803127E292070CF058C099237E
:1004400034F4919581959109EE24E39401C0E12C57
:10045000F12C6AE070E0B6D5E1E0F0E0EC0FFD1FB2
:10046000EF0DF11DF7FCFA95805D8083F394862FE4
:10047000972F181619066CF38F2DEE2059F0FE01F8
:10048000EF0DF11DF7FCFA959DE29183882364F44A
:1004900090E023C0FE01EF0DF11DF7FCFA959BE201
:1004A0009183F4CF892F02C080E02EE2F801E80F9B
:1004B000F11DA1E0B0E0AC0FBD1FAF0DB11D9C91CF
:1004C0009083982F9F5FFA9431F4F801E90FF11DA2
:1004D00020838E5FEBCFFF202CF7F801E90FF11D91
:1004E000108280E005C081E003C081E001C081E0AE
:1004F00027960FB6F894DEBF0FBECDBFDF91CF9128
:100500001F910F91FF90EF900895DF92EF92FF926D
:100510000F931F93CF93DF93CDB7DEB729970FB615
:10052000F894DEBF0FBECDBF8C017B011BD349E029
:10053000BE016F5F7F4FC801E4DED82E811109C074
:10054000BE016F5F7F4FF801808106DEF701918366
:1005500080838D2D29960FB6F894DEBF0FBECDBFD8
:10056000DF91CF911F910F91FF90EF90DF90089551
:10057000EF92FF920F931F93CF93DF93CDB7DEB728
:1005800029970FB6F894DEBF0FBECDBFE82E8B01C2
:1005900049E0BE016F5F7F4F80E090E0B2DEF82E51
:1005A000811108C0BE016F5F7F4F8E2DD5DDF80130
:1005B000918380838F2D29960FB6F894DEBF0FBEEE
:1005C000CDBFDF91CF911F910F91FF90EF900895D4
:1005D000DF92EF92FF920F931F93CF93DF93CDB7EC
:1005E000DEB729970FB6F894DEBF0FBECDBF8C01E2
:1005F0007B01B8D249E0BE016F5F7F4FC80181DE49
:10060000D82E81110BC0BE016F5F7F4FF801808132
:1006100010DEF70160837183828393838D2D299689
:100620000FB6F894DEBF0FBECDBFDF91CF911F9103
:100630000F91FF90EF90DF900895EF92FF920F934C
:100640001F93CF93DF93CDB7DEB729970FB6F894FA
:10065000DEBF0FBECDBFE82E8B0149E0BE016F5F4C
:100660007F4F80E090E04DDEF82E81110AC0BE0180
:100670006F5F7F4F8E2DDDDDF80160837183828394
:1006800093838F2D29960FB6F894DEBF0FBECDBF92
:10069000DF91CF911F910F91FF90EF900895DF921E
:1006A000EF92FF920F931F93CF93DF93CDB7DEB7F7
:1006B0006A970FB6F894DEBF0FBECDBF8A012A300D
:1006C00008F493C0613C2DEB720720EF82072FEFF7
:1006D00092070CF48CC0603826E9720728E982077B
:1006E00091050CF086C0992354F4909580957095EF
:1006F00061957F4F8F4F9F4FEE24E39401C0E12C13
:10070000F12C6894DD24D3F801C0F22E2AE030E009
:1007100040E050E06AD42B8B3C8B4D8B5E8B6F8B13
:10072000788F898F9A8FFE017396DE011B968D2D2F
:1007300001900D928A95E1F7E1E0F0E0EC0FFD1FEA
:10074000EF0DF11DF7FCFA958F85805D80832F2DCD
:100750002F5F6B857C858D859E851616170618067E
:1007600019069CF2822F8250823040F4FE01E20F83
:10077000F11D27FDFA9580E381832F5FEE2059F06C
:10078000FE01E20FF11D27FDFA958DE28183222300
:1007900064F490E024C0FE01E20FF11D27FDFA95FC
:1007A0008BE28183F4CF892F02C080E03EE2F80122
:1007B000E80FF11DA1E0B0E0AC0FBD1FA20FB11D0D
:1007C0009C919083982F9F5F2150233031F4F80142
:1007D000E90FF11D30839F5FE6CF222324F7F80154
:1007E000E90FF11D108280E005C081E003C081E0C7
:1007F00001C081E06A960FB6F894DEBF0FBECDBF90
:10080000DF91CF911F910F91FF90EF90DF900895AE
:10081000FF920F931F93CF93DF93EC01062F142FBA
:10082000F22EA0D172D1882381F0BE018EE45CD279
:10083000802FB5D1812FB3D18881883211F08232D7
:1008400031F48F2DACD180E003C081E001C080E0A5
:10085000DF91CF911F910F91FF900895FF920F9319
:100860001F93CF93DF93EC018B01F42E7BD14DD1FD
:10087000882329F04F2DB801CE0143DD01C081E06E
:10088000DF91CF911F910F91FF9008951F93CF9308
:10089000DF93182FEB0166D138D18823C9F01130CE
:1008A00061F0BE0188E423D283EC99E00197F1F76F
:1008B00000C0000055D180E00CC0BE0188E414D215
:1008C00083EC99E00197F1F700C0000080E001C0DF
:1008D00082E0DF91CF911F910895CF93DF93EC01D8
:1008E00041D113D1882381F0BE0188EBFDD1CEEF39
:1008F00002C0C15020F081E04ED18823D1F381E0C5
:10090000CC2319F080E001C081E0DF91CF91089500
:10091000DA9A00C0DA980895CF93C82F662311F0B1
:10092000D89A01C0D898D998D49AD59AD69AD79AF5
:10093000DF98DE98DD98DC98CC230CF4DF9AC6FDB6
:10094000DE9AC5FDDD9AC4FDDC9AE2DFDF98DE9811
:10095000DD98DC98C3FDDF9AC2FDDE9AC1FDDD9A09
:10096000C0FDDC9AD5DFDC9ADD9ADE9ADF9ACF9162
:100970000895882311F0D89A01C0D898D99AD498AC
:10098000D598D698D798DA9A00C0CC9902C080E062
:1009900001C080E1CD998062CE998064CF99806852
:1009A000DA9800C0DA9A00C0CC998160CD99826053
:1009B000CE998460CF998860DA98089580E0D9DF75
:1009C0008823E4F300C080E0D4DF0895CF93C82FDC
:1009D000F5DF60E08C2FA0DFCF910895CF93C82F73
:1009E000EDDF61E08C2F98DFCF910895611103C096
:1009F0008058ECDF08958054E9DF0895DFDF90E050
:100A0000089581E0E3DF089582E0E0DF0895CF9369
:100A1000C82FD4DFCA3041F4803410F480E401C020
:100A200080E08058D3DF03C061E08C2F75DFCF9169
:100A30000895CF93DF93EC018991882321F0E7DFBC
:100A400089918111FCCFDF91CF910895CF93DF93EE
:100A5000CDB7DEB72A970FB6F894DEBF0FBECDBF75
:100A60004AE050E0BE016F5F7F4F90E00FD3CE01B0
:100A70000196DFDF2A960FB6F894DEBF0FBECDBF1A
:100A8000DF91CF910895CF93DF93EC012196FC0184
:100A90008491882331F0BBDFFE012196849181117E
:100AA000FACFDF91CF9108951F93CF93DF93182F43
:100AB000D09AD19AD29AD49AD59AD69AD79AE0EA6D
:100AC000FFE03197F1F7DD9ADC9A22DFE0EEF4E007
:100AD0003197F1F71DDFC0E1D0E0FE013197F1F76A
:100AE00017DFFE013197F1F7DC9812DF2197F1F75C
:100AF00088E26CDF88E06ADF84DF86E067DF812FD1
:100B000065DFDF91CF911F91089580B380780895BC
:100B1000979A8F9A0895CF93DF93C82FDFB7F894F1
:100B200097988F9A00C0882311F08F98979A84E045
:100B30008A95F1F7000080B3880F880BC8238EE0F8
:100B40008A95F1F70000979A8F986111E1DFDFBF76
:100B500083E08A95F1F700008C2FDF91CF91089503
:100B60008F98089597988F9A80EA8A95F1F79FB7A2
:100B7000F8948F98979A85E18A95F1F7000080B3F1
:100B80009FBF9AE89A95F1F700C0879B02C08078D2
:100B9000089581E0089560E08170BDDF0895CF93EE
:100BA000DF93C82FD8E08C2F8170F5DFC6958111B7
:100BB000C068D150C1F78C2FDF91CF910895CF93AA
:100BC000DF93C82FD8E0D13029F060E08C2F8170FE
:100BD000A2DF04C061E08C2F81709DDFC69581117A
:100BE000C068D15081F78C2FDF91CF910895EF929B
:100BF000FF920F931F93CF93DF93E82EEB01F42E18
:100C0000B1DF209759F085E5CADF8E01085F1F4FDD
:100C10008991C5DFC017D107D9F702C08CECBFDFBF
:100C2000FF2019F08E2DCBDF02C08E2DB8DFDF91B3
:100C3000CF911F910F91FF90EF9008958FEFAFDF4D
:100C40000895DF92EF92FF920F931F93CF93DF935C
:100C5000D82EEB0187DF811124C080EFA0DFE12CCB
:100C600010E40F2EF8EFFF2EF02DF10E81E093DF50
:100C7000082F81E090DF882319F00023D1F014C001
:100C8000011122C01D15D8F0888180FF12C0D11239
:100C900019C00FC011501F11E9CF21961111E1CFDA
:100CA0001AC0EE24EA9417C00F2EFEEFEF2EF02D9F
:100CB00012C0802F70DF988196959883EBCFE12E3C
:100CC00001E002C0E12E01E0802F65DF988196955A
:100CD00090689883DFCF8E2DDF91CF911F910F9178
:100CE000FF90EF90DF90089540E081DF089541E0AC
:100CF0007EDF08951F920F920FB60F9211248F93EB
:100D00008091C2008F5F8093C2008091C2008C33BB
:100D100038F08091C1008F5F8093C1001092C200B3
:100D20008F910F900FBE0F901F901895809BFECF54
:100D30000895CF93DF938FE493EC0197F1F700C010
:100D4000000061E085E052DE809163007FDE86EB8B
:100D500090E06FDEC0E0D4EB16C08FE493EC019717
:100D6000F1F700C0000061E085E040DE80916300A3
:100D70006DDE86EB90E05DDEC1FF05C08091630013
:100D8000865F80936300C2FF05C0809163008A5034
:100D9000809363008C2F817090916300953B10F0DD
:100DA000D0936300C0B38823C1F2DF91CF9108953F
:100DB0001F93CF93DF938FE493EC0197F1F700C07B
:100DC000000061E080E012DE809162003FDE88E298
:100DD0001EDE809161003ADE89E219DEC0E013E692
:100DE000D2E31AC08FE493EC0197F1F700C0000042
:100DF00061E080E0FBDD8091620028DE88E207DEB2
:100E00008091610023DE89E202DEC1FF05C080918E
:100E100062008F5F80936200C2FF05C08091620014
:100E20008150809362009C2F917080916200833387
:100E300018F4D093620004C0833610F0109362005F
:100E4000809162008D5F80936100C0B3992351F25D
:100E5000DF91CF911F910895CF93DF93CDB7DEB788
:100E600065970FB6F894DEBF0FBECDBF1092C000DD
:100E70001092C2001092C1008FE081BB94988EB591
:100E800088608EBD89B7806489BF789488E09DE3CF
:100E90009BBD8ABD8EB583608EBD8CE005DE62DEB3
:100EA0008FEF8D8B00E010E07E0125E1E20EF11C5A
:100EB000D02EBE01635F7F4FC70151DA8D898F3F0E
:100EC00021F487E790E0B5DD1FC08E3F21F487E86D
:100ED00090E0AFDD19C0FE013D96D801AA0FBB1FFF
:100EE000AA0FBB1FAA0FBB1FAD53BF4F81918D939C
:100EF000EE15FF05D9F7D3948D89882329F00F5F6C
:100F00001F4F05301105A1F68D2DA0DD81E990E080
:100F100090DD61E080E06ADD83EC90E041DA8111F0
:100F200004C086E990E085DD03C08FE990E081DDB3
:100F300081E28A95F1F7000003EC10E0E3ECF9E0C0
:100F40003197F1F700C0000060E070E081E03ADA2C
:100F5000811125C0FFEE29E482E0F150204080405D
:100F6000E1F700C00000BE016F5F7F4FF801808194
:100F7000FFDA60E080E03ADD8AEA90E05ADD4AE09C
:100F8000BE016D5F7F4F89819A813DDA61E080E02B
:100F90002DDD89815BDD81EB90E04BDDCFCF61E022
:100FA00080E024DD8BEB90E044DDC8CFA29FB00150
:100FB000B39FC001A39F01D0B29F700D811D11246A
:100FC000911D089597FB072E16F4009406D077FD27
:100FD00008D026D007FC05D03EF4909581959F4F10
:100FE0000895709561957F4F0895052E97FB16F42F
:100FF000009406D057FD0CD027D007FC09D07EF412
:1010000090958095709561957F4F8F4F9F4F089574
:1010100050954095309521953F4F4F4F5F4F089524
:10102000AA1BBB1B51E107C0AA1FBB1FA617B7070E
:1010300010F0A61BB70B881F991F5A95A9F780952A
:101040009095BC01CD010895A1E21A2EAA1BBB1BED
:10105000FD010DC0AA1FBB1FEE1FFF1FA217B30784
:10106000E407F50720F0A21BB30BE40BF50B661F9A
:10107000771F881F991F1A9469F76095709580955E
:1010800090959B01AC01BD01CF010895FB019F012B
:10109000E8944230BCF04532ACF44A3029F497FB76
:1010A0001EF4909581959F4F642F7727B9DF805D5F
:1010B0008A330CF0895D8193CB010097A9F716F470
:1010C0005DE251931082C90100C0DC01FC01672F71
:1010D00071917723E1F7329704C07C916D9370830F
:0E10E0006291AE17BF07C8F30895F894FFCFD2
:1010EE003C49453C767274204F4B007672742062F8
:1010FE0061640063613A004E6F2053656E736F72C8
:10110E0020666F756E6400427573204572726F7241
:10111E000020746D70007061726173697465006592
:10112E00787465726E616C6C790074656D703A20BE
:10113E000020202020202020202000657272000038
:00000001FF
