:100000000C942A000C9447000C9447000C94470071
:100010000C94F6080C9447000C9447000C94DA08F2
:100020000C9447000C9447000C94C3080C944700B0
:100030000C9447000C9447000C9447000C94470024
:100040000C9447000C9447000C9447000C94470014
:100050000C94470011241FBECFE5D8E0DEBFCDBF12
:1000600011E0A0E6B0E0E0E2F5E102C005900D92FB
:10007000A031B107D9F711E0A0E1B1E001C01D92B4
:10008000AF31B107E1F70E9426090C948E0A0C9457
:10009000000061157105B9F0E82FF92F6E0F7F1F71
:1000A00080E058E048E12191952F322F382730FF2A
:1000B0000CC084278695806826959150B1F7E61785
:1000C000F70789F7089580E008958695F5CF08959C
:1000D0009FEF94BBC29AC19AC09A85BB81E090E021
:1000E000FC013197F1F7C298FC013197F1F715BA8D
:1000F00014BAC0980197F1F783B3089580EB0E947A
:100100006800089580ED0E946800089580E50E94CF
:100110006800089580E00E94680008959FEF94BBF6
:1001200065BBC198C098C29A21E030E0F9013197CF
:10013000F1F7C298C09A85BBC9010197F1F7C09841
:1001400014BA80E0089560ED0E948E00089560E585
:100150000E948E000895CF938A9A889A899A0E9465
:1001600086008823E4F30E947E0088232CF482E634
:1001700090E00E94800504C089E690E00E9480051E
:1001800084EF0E94A7000E948600C82F61E080E0F3
:100190000E94550581E790E00E9480058C2F90E039
:1001A0000E948E0588E00E94A300CF910895FB0174
:1001B000318120E09081292B803179F42E7FA901B3
:1001C000440F551F440F551F440F551F96812CE0B7
:1001D00030E0291B3109240F351F33232CF43195CE
:1001E0002195310961E001C060E0883211F082326E
:1001F00069F484818076803231F0803431F081116D
:1002000005C0287F03C02C7F01C02E7FC9019295B5
:1002100082958F7089279F708927AC01440F551FE5
:10022000880F991F880F991F880F991F840F951F9A
:100230002F703327A9015695542F4427579547957A
:10024000322F2227330F240F351F611112C03E5F5A
:10025000232F332726952695280F391FC9018A5D3C
:100260009D4F8930974010F020ED37E0822F932F7B
:100270000895232F332726952695820F931F222733
:100280003327281B390BEACFCF92DF92EF92FF92F0
:100290000F931F93CF93FB01518140E09081492B35
:1002A000803179F44E7F9A01220F331F220F331FC2
:1002B000220F331F96814CE050E0491B5109420F39
:1002C000531F55232CF4519541955109C1E001C0AC
:1002D000C0E0883211F0823269F484818076803205
:1002E00031F0803431F0811105C0487F03C04C7F6C
:1002F00001C04E7F9A01329522952F7023273F70BF
:100300002327A0E1B7E20E94E5094F705527E1E7F6
:10031000F2E04E9F90014F9F300D5E9F300D1124F3
:100320006B017C01C20ED31EE11CF11C97018601FA
:10033000CC2339F030952095109501951F4F2F4F04
:100340003F4F602F712F822F932FCF911F910F91CD
:10035000FF90EF90DF90CF900895DF92EF92FF92A1
:100360000F931F93CF93DF93E62EF72ED42EBC016D
:100370008EEB0E94F706DD2071F0CE2DDF2D8E0171
:100380000F5F1F4FDA940D0D111D0E949A0689937D
:10039000C017D107D1F769E070E08E2D9F2D0E9424
:1003A0004900882311F083E001C080E0DF91CF9104
:1003B0001F910F91FF90EF90DF9008950F931F937F
:1003C000CF93DF93EC018B01B80188810E949E06D8
:1003D000888381508D3F50F4F8018081883241F04C
:1003E000803141F0823281F780E005C081E003C0B6
:1003F00080E001C080E0DF91CF911F910F910895BF
:10040000CF93DF93EC010E942406BE0184EB0E948F
:10041000F70681E00E943D06C82F0E94240681E075
:10042000C11101C080E0DF91CF9108951F93CF9358
:10043000DF93182FEB010E9424060E94F805882301
:1004400071F0113031F0BE0184E40E94FB0680E0BF
:1004500007C0BE0184E40E94F70680E001C082E08C
:10046000DF91CF911F91089581E00E943D0691E0B8
:10047000811190E0892F0895EF92FF920F931F93BF
:10048000CF93DF93CDB7DEB727970FB6F894DEBFD3
:100490000FBECDBF8B01473008F45FC089312CEF10
:1004A00092070CF45CC0803127E292070CF059C02F
:1004B000992334F4919581959109EE24E39401C038
:1004C000E12CF12C6AE070E00E94F409E1E0F0E038
:1004D000EC0FFD1FEF0DF11DF7FCFA95805D808399
:1004E000F394862F972F1816190664F38F2DEE209C
:1004F00059F0FE01EF0DF11DF7FCFA959DE2918395
:10050000882364F490E023C0FE01EF0DF11DF7FC99
:10051000FA959BE29183F4CF892F02C080E02EE20E
:10052000F801E80FF11DA1E0B0E0AC0FBD1FAF0D69
:10053000B11D9C919083982F9F5FFA9431F4F8013C
:10054000E90FF11D20838E5FEBCFFF202CF7F80120
:10055000E90FF11D108280E005C081E003C081E059
:1005600001C081E027960FB6F894DEBF0FBECDBF65
:10057000DF91CF911F910F91FF90EF900895DF923F
:10058000EF92FF920F931F93CF93DF93CDB7DEB718
:1005900029970FB6F894DEBF0FBECDBF8C017B014B
:1005A0000E94240649E0BE016F5F7F4FC8010E9490
:1005B000AD01D82E81110AC0BE016F5F7F4FF801D7
:1005C00080810E94D700F701918380838D2D299629
:1005D0000FB6F894DEBF0FBECDBFDF91CF911F9154
:1005E0000F91FF90EF90DF900895EF92FF920F939D
:1005F0001F93CF93DF93CDB7DEB729970FB6F8944B
:10060000DEBF0FBECDBFE82E8B0149E0BE016F5F9C
:100610007F4F80E090E00E94AD01F82E811109C06B
:10062000BE016F5F7F4F8E2D0E94D700F80191832E
:1006300080838F2D29960FB6F894DEBF0FBECDBFF5
:10064000DF91CF911F910F91FF90EF900895DF926E
:10065000EF92FF920F931F93CF93DF93CDB7DEB747
:1006600029970FB6F894DEBF0FBECDBF8C017B017A
:100670000E94240649E0BE016F5F7F4FC8010E94BF
:10068000AD01D82E81110CC0BE016F5F7F4FF80104
:1006900080810E944401F701608371838283938388
:1006A0008D2D29960FB6F894DEBF0FBECDBFDF911A
:1006B000CF911F910F91FF90EF90DF900895EF92EF
:1006C000FF920F931F93CF93DF93CDB7DEB7299798
:1006D0000FB6F894DEBF0FBECDBFE82E8B0149E008
:1006E000BE016F5F7F4F80E090E00E94AD01F82E69
:1006F00081110BC0BE016F5F7F4F8E2D0E944401A0
:10070000F80160837183828393838F2D29960FB6BE
:10071000F894DEBF0FBECDBFDF91CF911F910F9137
:10072000FF90EF900895DF92EF92FF920F931F9347
:10073000CF93DF93CDB7DEB76A970FB6F894DEBFDD
:100740000FBECDBF8A012A3008F494C0613C2DEB66
:10075000720720EF82072FEF92070CF48DC06038EC
:1007600026E9720728E9820791050CF087C09923D2
:1007700054F490958095709561957F4F8F4F9F4F62
:10078000EE24E39401C0E12CF12C6894DD24D3F82D
:1007900001C0F22E2AE030E040E050E00E94080A5A
:1007A0002B8B3C8B4D8B5E8B6F8B788F898F9A8FC9
:1007B000FE017396DE011B968D2D01900D928A9598
:1007C000E1F7E1E0F0E0EC0FFD1FEF0DF11DF7FCAC
:1007D000FA958F85805D80832F2D2F5F6B857C85BB
:1007E0008D859E85161617061806190694F2822F17
:1007F0008250823040F4FE01E20FF11D27FDFA9590
:1008000080E381832F5FEE2059F0FE01E20FF11D9E
:1008100027FDFA958DE28183222364F490E024C0C1
:10082000FE01E20FF11D27FDFA958BE28183F4CFE3
:10083000892F02C080E03EE2F801E80FF11DA1E03F
:10084000B0E0AC0FBD1FA20FB11D9C919083982FFB
:100850009F5F2150233031F4F801E90FF11D3083FF
:100860009F5FE6CF222324F7F801E90FF11D1082E4
:1008700080E005C081E003C081E001C081E06A96AC
:100880000FB6F894DEBF0FBECDBFDF91CF911F91A1
:100890000F91FF90EF90DF900895FF920F931F93B9
:1008A000CF93DF93EC01062F142FF22E0E94240623
:1008B0000E94F8058823A1F0BE018EE40E94F7068D
:1008C000802F0E944206812F0E9442068881883232
:1008D00011F0823239F48F2D0E94420680E003C06D
:1008E00081E001C080E0DF91CF911F910F91FF90D7
:1008F0000895FF920F931F93CF93DF93EC018B0129
:10090000F42E0E9424060E94F805882331F04F2D12
:10091000B801CE010E94AD0101C081E0DF91CF910D
:100920001F910F91FF9008951F93CF93DF93182F7E
:10093000EB010E9424060E94F8058823E1F01130A3
:1009400071F0BE0188E40E94FB0683EC99E00197F8
:10095000F1F700C000000E94220680E00DC0BE0139
:1009600088E40E94F70683EC99E00197F1F700C054
:10097000000080E001C082E0DF91CF911F910895D7
:10098000CF93DF93EC010E9424060E94F805882390
:1009900091F0BE0188EB0E94F706CEEF02C0C15075
:1009A00028F081E00E943D068823C9F381E0CC2332
:1009B00019F080E001C081E0DF91CF910895DA9ACB
:1009C00000C0DA980895CF93C82F662311F0D89A03
:1009D00001C0D898D998D39AD49AD59AD69ADE9845
:1009E000DD98DC98DB98CC230CF4DE9AC6FDDD9A0A
:1009F000C5FDDC9AC4FDDB9A0E94DF04DE98DD9819
:100A0000DC98DB98C3FDDE9AC2FDDD9AC1FDDC9A5D
:100A1000C0FDDB9A0E94DF04DB9ADC9ADD9ADE9A45
:100A2000CF910895882311F0D89A01C0D898D99A07
:100A3000D398D498D598D698DA9A00C0CB9902C0AA
:100A400080E001C080E1CC998062CD998064CE992C
:100A50008068DA9800C0DA9A00C0CB998160CC999E
:100A60008260CD998460CE998860DA98089580E09C
:100A70000E9412058823DCF300C080E00E9412056A
:100A80000895CF93C82F0E94370560E08C2F0E94F5
:100A9000E304CF910895CF93C82F0E94370561E0FA
:100AA0008C2F0E94E304CF910895611104C08058F7
:100AB0000E944105089580540E94410508950E94B6
:100AC000370590E0089581E00E944105089582E095
:100AD0000E9441050895CF93C82F0E943705CA3060
:100AE00049F4803410F480E401C080E080580E9412
:100AF000410504C061E08C2F0E94E304CF9108956A
:100B0000CF93DF93EC018991882329F00E946B0534
:100B100089918111FBCFDF91CF910895CF93DF931E
:100B2000CDB7DEB72A970FB6F894DEBF0FBECDBFA4
:100B30004AE050E0BE016F5F7F4F0E945D0ACE0128
:100B400001960E9480052A960FB6F894DEBF0FBE6C
:100B5000CDBFDF91CF910895CF93DF93EC01219624
:100B6000FC018491882339F00E946B05FE012196D7
:100B700084918111F9CFDF91CF9108951F93CF9385
:100B8000DF93182FD09AD19AD29AD39AD49AD59A21
:100B9000D69AE0EAFFE03197F1F7DC9ADB9A0E94FF
:100BA000DF04E0EEF4E03197F1F70E94DF04C0E1EA
:100BB000D0E0FE013197F1F70E94DF04FE0131978A
:100BC000F1F7DB980E94DF042197F1F788E20E9499
:100BD000410588E00E9441050E94630586E00E946D
:100BE0004105812F0E944105DF91CF911F9108950A
:100BF00086B384700895C29ABA9A0895CF93DF930A
:100C0000C82FDFB7F894C298BA9A00C0882311F0B1
:100C1000BA98C29A84E08A95F1F70000B29BC0E0CE
:100C20008EE08A95F1F70000C29ABA9861110E948D
:100C3000FB05DFBF83E08A95F1F700008C2FDF9181
:100C4000CF910895BA980895C298BA9A80EA8A9581
:100C5000F1F79FB7F894BA98C29A85E18A95F1F7AF
:100C6000000086B39FBF9AE89A95F1F700C0B29B47
:100C700002C08470089581E0089560E081700E9450
:100C8000FE050895CF93DF93C82FD8E08C2F817095
:100C90000E943D06C6958111C068D150B9F78C2FCE
:100CA000DF91CF910895CF93DF93C82FD8E0D13053
:100CB00031F060E08C2F81700E94FE0505C061E07C
:100CC0008C2F81700E94FE05C6958111C068D1509D
:100CD00071F78C2FDF91CF910895EF92FF920F93D0
:100CE0001F93CF93DF93E82EEB01F42E0E9424068E
:100CF000209769F085E50E9442068E01085F1F4F2C
:100D000089910E944206C017D107D1F703C08CEC2D
:100D10000E944206FF2021F08E2D0E94530603C040
:100D20008E2D0E944206DF91CF911F910F91FF906F
:100D3000EF9008958FEF0E9442060895DF92EF92A0
:100D4000FF920F931F93CF93DF93D82EEB010E9456
:100D50002406811127C080EF0E944206E12C10E496
:100D60000F2EF8EFFF2EF02DF10E81E00E943D06D0
:100D7000082F81E00E943D06882319F00023D1F05E
:100D800014C0011123C01D15E0F0888180FF12C03E
:100D9000D1121AC00FC011501F11E7CF21961111A7
:100DA000DFCF1CC0EE24EA9419C00F2EFEEFEF2E09
:100DB000F02D14C0802F0E943D069881969598834F
:100DC000EACFE12E01E002C0E12E01E0802F0E9477
:100DD0003D069881969590689883DDCF8E2DDF91A2
:100DE000CF911F910F91FF90EF90DF90089540E019
:100DF0000E946D06089541E00E946D060895CF930C
:100E0000DF931F92CDB7DEB780B3898387E893E184
:100E10000197F1F700C00000809160008823B1F0D5
:100E2000898182FD06C0898184FD05C08981817028
:100E300003C082E001C083E09981911110926000AB
:100E4000811105C091E09093600001C080E00F9097
:100E5000DF91CF9108950E94FF068130E1F7089558
:100E6000CF93DF93EC0121E044E162E385E790E07A
:100E70000E94A409888FDF91CF910895CF93DF93CB
:100E8000EC0121E04CE360E585E890E00E94A409D4
:100E9000888FDF91CF910895DF92EF92FF920F93A9
:100EA0001F93CF93DF93EC0112E001E0E12C0F2EB2
:100EB000FAE0DF2EF02D6894FF24F1F8612F84E929
:100EC00090E00E948C090E947C09180F902F8111DC
:100ED0009E2D123018F01B3018F403C01D2D01C0D8
:100EE0001F2D992359F31983DF91CF911F910F91F2
:100EF000FF90EF90DF900895DF92EF92FF920F93B3
:100F00001F93CF93DF93EC01D62E1AE001E0E12C82
:100F10000F2EF5E0FF2EF02D612F8EE990E00E945C
:100F20008C090E947C09982F990F990F980F190F1F
:100F3000902F81119E2D153018F0193218F403C02E
:100F400018E201C01F2D992339F3CD0DD11D1A834D
:100F5000DF91CF911F910F91FF90EF90DF90089557
:100F60001F93CF93DF93EC018981882349F010E030
:100F7000612FCE010E947C071F5F89811817C0F383
:100F8000DF91CF911F910895DF92EF92FF920F931F
:100F90001F93CF93DF93EC01D62E14E101E0E12CF7
:100FA0000F2EF4E1FF2EF02D612F8EE990E00E94CC
:100FB0008C090E947C09982F990F190F902F81118D
:100FC0009E2D143118F0113518F403C010E501C03E
:100FD0001F2D992349F3CD0DD11D1C87DF91CF9192
:100FE0001F910F91FF90EF90DF9008951F93CF9383
:100FF000DF93EC018981882349F010E0612FCE0155
:101000000E94C4071F5F89811817C0F3DF91CF9139
:101010001F910895CF93C42F60E080E00E94550592
:1010200089EA90E00E94800561E080E00E94550519
:10103000C13021F068F0C23031F00EC086EB90E094
:101040000E94800509C082EC90E00E94800504C0E7
:101050008CEC90E00E948005CF9108950F931F9330
:10106000CF93DF93EC0111E001E0412F60E080E0DD
:101070000E940A080E947C09180F902F811190E0AD
:10108000133008F010E0992381F31883DF91CF919A
:101090001F910F910895CF93C82F60E080E00E94C8
:1010A000550588ED90E00E94800561E080E00E9497
:1010B0005505CC2319F0C13031F009C082EE90E023
:1010C0000E94800504C082EE90E00E948005CF91CE
:1010D0000895FF920F931F93CF93DF93EC0110E0DD
:1010E000FF24F39400E0812F0E944B080E947C09AA
:1010F000180F9F2D8111902F123008F0102F992377
:1011000091F3198FDF91CF911F910F91FF90089567
:10111000CF93DF93EC01009781F10E942E08888124
:1011200081110DC081E08983CE010E943007CE017C
:101130000E943E07CE010E94B00781E021C08130AD
:1011400061F48983CE010E94F607CE010E94B007A8
:10115000CE010E94690881E013C0823081F4CE0183
:101160000E944C07CE010E94F607CE010E94B007F4
:10117000CE010E94690881E003C080E001C080E0E8
:10118000DF91CF9108951F920F920FB60F92112405
:101190008F93809110018F5F8093100180911001D7
:1011A000853110F0109210018F910F900FBE0F90AB
:1011B0001F9018951F920F920FB60F9211248F93C4
:1011C000809116018F5F80931601809116018C33F8
:1011D00038F0809115018F5F8093150110921601F0
:1011E0008F910F900FBE0F901F9018951F920F9226
:1011F0000FB60F9211240F900FBE0F901F901895ED
:10120000AE9A0895AE98089583B78D6083BF81E646
:101210008CBF89B7826089BF8EB588608EBD89B763
:10122000806189BF88E09DE39BBD8ABD8EB58360E8
:101230008EBD85B5886685BD85B5856085BD80E830
:1012400083BD89B7806889BF789408951F93CF9331
:10125000DF93CDB7DEB76B970FB6F894DEBF0FBE46
:10126000CDBF1092120110921601109215018FE05D
:1012700081BB1FEF14BB15BA8CE00E94BE0585EE42
:1012800090E00E9480050E942B070E946305CE011A
:1012900001960E9488080E9463050E94630586EFFC
:1012A00090E00E94800581E0809312011B8F67E12E
:1012B00071E0CE014B960E94DE01882349F084E064
:1012C00091E00E9480050E942B0781E090E00AC017
:1012D00061E080E00E94550581E28A95F1F7000007
:1012E00080E090E06B960FB6F894DEBF0FBECDBFE6
:1012F000DF91CF911F9108950E94FF06823051F037
:10130000833021F0813021F08DE908958FEF089529
:1013100080E0089581E008951F93CF93DF93EC015F
:10132000162F60E080E00E945505CE010E948005E6
:1013300061E080E00E945505812F90E00E948E05BB
:10134000DF91CF911F9108959F92AF92BF92CF925C
:10135000DF92EF92FF920F931F93CF93DF93EC01F5
:10136000F62ED42EA22EE12C99249394B42EC62EC0
:101370000E94FF06082F612FCE010E948C090230C7
:1013800031F0033039F0013041F08E2D07C01A0DD5
:101390008E2D04C01A198E2D01C0892DF11618F05A
:1013A0001D1518F003C01B2D01C01C2D882301F34F
:1013B000812FDF91CF911F910F91FF90EF90DF90E0
:1013C000CF90BF90AF909F900895A29FB001B39F20
:1013D000C001A39F700D811D1124911DB29F700D3E
:1013E000811D1124911D089597FB072E16F400947A
:1013F00007D077FD09D00E94270A07FC05D03EF4EC
:10140000909581959F4F0895709561957F4F0895B0
:10141000052E97FB1EF400940E941F0A57FD07D06B
:101420000E943B0A07FC03D04EF40C941F0A50950F
:101430004095309521953F4F4F4F5F4F08959095C0
:101440008095709561957F4F8F4F9F4F0895AA1B90
:10145000BB1B51E107C0AA1FBB1FA617B70710F09F
:10146000A61BB70B881F991F5A95A9F780959095D1
:10147000BC01CD010895A1E21A2EAA1BBB1BFD01E0
:101480000DC0AA1FBB1FEE1FFF1FA217B307E40763
:10149000F50720F0A21BB30BE40BF50B661F771FBB
:1014A000881F991F1A9469F760957095809590959B
:1014B0009B01AC01BD01CF010895FB019F01E894A0
:1014C0004230C4F04532B4F44A3029F497FB1EF49C
:1014D000909581959F4F642F77270E94270A805D02
:1014E0008A330CF0895D8193CB010097A1F716F444
:1014F0005DE251931082C9010C947E0ADC01FC016B
:10150000672F71917723E1F7329704C07C916D9337
:1015100070836291AE17BF07C8F30895F894FFCFA8
:10152000013C767274204F4B0076727420626164C5
:101530000063613A004C696E2E2073746172742EE0
:1015400020746D70004C696E2E2073746F702E20A5
:10155000746D70004E7220427265616B730042724E
:1015600065616B2054696D65004D61736820507230
:101570006F66696C650053696E676C6520496E66BD
:101580002E005374657020496E662E004C696E659E
:1015900061722074656D70004D617368206F7574A1
:1015A0003F006E6F00636F6E6E6563740A20636147
:1015B000626C657321005374617274696E67206D8B
:1015C000617368004E6F2053656E736F7221000067
:00000001FF
